:100000000C945D000C9485000C9485000C94850084
:100010000C9485000C9485000C9485000C9485004C
:100020000C9485000C9485000C9485000C9485003C
:100030000C9485000C9485000C9485000C9485002C
:100040000C9446030C9485000C9485000C94850058
:100050000C9485000C9485000C9485000C9485000C
:100060000C9485000C94850000000008000201003B
:100070000003040700000000000000000000000072
:10008000250028002B0000000000240027002A0083
:10009000040404040404040402020202020203032E
:1000A0000303030301020408102040800102040836
:1000B0001020010204081020B30411241FBECFEF4A
:1000C000D8E0DEBFCDBF11E0A0E0B1E0E6EFF9E09F
:1000D00002C005900D92AA34B107D9F721E0AAE435
:1000E000B1E001C01D92AB36B207E1F710E0CDE5FB
:1000F000D0E004C02197FE010E94F304CC35D10763
:10010000C9F70E9490030C94F9040C94000090E04D
:10011000FC01EC55FF4F249180579F4FFC018491C7
:10012000882399F090E0880F991FFC01EA57FF4F50
:10013000A591B491FC01E458FF4F859194918FB73C
:10014000F894EC91E22BEC938FBF089590E0FC01C2
:10015000E859FF4F2491FC01EC55FF4F3491FC010D
:10016000E057FF4FE491EE23C9F0222339F023300A
:1001700001F1A8F4213019F1223029F1F0E0EE0F5D
:10018000FF1FE458FF4FA591B4918FB7F894EC91FD
:10019000611126C030953E233C938FBF08952730D0
:1001A000A9F02830C9F0243049F7809180008F7D74
:1001B00003C0809180008F7780938000DFCF84B56B
:1001C0008F7784BDDBCF84B58F7DFBCF8091B0006E
:1001D0008F778093B000D2CF8091B0008F7DF9CF20
:1001E0003E2BDACF3FB7F89480914F0190915001A8
:1001F000A0915101B091520126B5A89B05C02F3F97
:1002000019F00196A11DB11D3FBFBA2FA92F982F3C
:100210008827BC01CD01620F711D811D911D42E037
:10022000660F771F881F991F4A95D1F708958F92FF
:100230009F92AF92BF92CF92DF92EF92FF924B01CB
:100240005C010E94F2006B017C010E94F2006C19BB
:100250007D098E099F09683E734081059105A8F3C9
:1002600021E0821A9108A108B10888EEC80E83E047
:10027000D81EE11CF11C81149104A104B10429F7DA
:10028000FF90EF90DF90CF90BF90AF909F908F90B6
:100290000895AF92BF92CF92DF92EF92FF920F93A9
:1002A0001F93CF93DF936C017B018B01040F151F0C
:1002B000EB015E01AE18BF08C017D10759F0699174
:1002C000D601ED91FC910190F081E02DC6010995D8
:1002D000892B79F7C501DF91CF911F910F91FF9085
:1002E000EF90DF90CF90BF90AF900895089590E089
:1002F00080E008958F929F92AF92BF920F931F93C9
:10030000CF93DF93CDB7DEB7A1970FB6F894DEBFDA
:100310000FBECDBF19A2423008F44AE08E010F5D36
:100320001F4F842E912CB12CA12CA50194010E9469
:10033000D104E62FB901CA01EA3044F5E05DD801E5
:10034000EE938D01232B242B252B79F790E080E071
:10035000109769F0FD0101900020E9F73197AF0196
:100360004A1B5B0BBD0183E591E00E944901A19608
:100370000FB6F894DEBF0FBECDBFDF91CF911F91B6
:100380000F91BF90AF909F908F900895E95CD7CF69
:10039000FC0101900020E9F73197AF01481B590B90
:1003A000BC0183E591E00C944901CF93DF93EC010C
:1003B00060E08E810E94A60061E08E810E94A6000E
:1003C00060E08E810E94A6008BE891E00197F1F732
:1003D000DF91CF910895CF92DF92EF92FF920F932A
:1003E0001F93CF93DF936C017C0187E0E80EF11C33
:1003F000D0E0C0E0062F10E0B8010C2E02C07595C9
:1004000067950A94E2F76170F70181917F010E947C
:10041000A6002196C430D10579F7C601DF91CF91AE
:100420001F910F91FF90EF90DF90CF900C94D5012A
:10043000CF92DF92EF92FF920F931F93CF93DF93B0
:10044000EC01F62E642F8C810E94A6008D818F3FD7
:1004500019F060E00E94A6000F2D10E08F8584FF48
:1004600025C06E0187E0C80ED11CF12CE12CB8012B
:100470000E2C02C0759567950A94E2F76170F6013B
:1004800081916F010E94A600FFEFEF1AFF0A88E03A
:10049000E816F10461F7CE01DF91CF911F910F9122
:1004A000FF90EF90DF90CF900C94D501B80184E0DD
:1004B000759567958A95E1F7CE010E94EB016F2D46
:1004C000CE01DF91CF911F910F91FF90EF90DF90C0
:1004D000CF900C94EB0140E0682F83E591E00C9401
:1004E000180281E00E946B028BE39FE10197F1F714
:1004F0000895CF93DF93823029F490916201986040
:1005000090936201809366011092670180E480936A
:10051000680180E18093690180E580936A018091A0
:1005200057010E948700809158018F3F11F00E946F
:100530008700809159010E948700C3E5D1E09E01A8
:10054000235531408091620184FD0AC084E090E02F
:100550002196281739073CF48E810E948700EFCF3F
:1005600088E090E0F5CF8BE39DE00197F1F760E044
:10057000809157010E94A60060E0809159010E947D
:10058000A600809158018F3F19F060E00E94A600FC
:100590008091620184FD34C063E083E591E00E94B4
:1005A000EB01CBE4D6E4CE010197F1F763E083E5FC
:1005B00091E00E94EB012197F1F763E083E591E080
:1005C0000E94EB0183E592E00197F1F762E083E599
:1005D00091E00E94EB018091620180620E946B02B7
:1005E00084E0809363018CE00E946B020E947102A0
:1005F00082E08093640186E0DF91CF910C946B02DE
:1006000080620E946B028BE496E40197F1F780917F
:10061000620180620E946B0283E592E00197F1F72C
:100620008091620180620E946B02D5CF9091660139
:10063000891710F08FEF890FE82FF0E0ED5AFE4F89
:10064000848980680C946B0241E00E94180281E06A
:1006500090E00895CF92DF92EF92FF926B017C01C0
:1006600041E06DE283E591E00E941802662777275A
:10067000CB016C197D098E099F094AE00E947A011D
:100680000196FF90EF90DF90CF9008951F920F9208
:100690000FB60F9211242F933F938F939F93AF9395
:1006A000BF9380914B0190914C01A0914D01B0916D
:1006B0004E0130914A0123E0230F2D3758F5019662
:1006C000A11DB11D20934A0180934B0190934C01D1
:1006D000A0934D01B0934E0180914F019091500134
:1006E000A0915101B09152010196A11DB11D8093BD
:1006F0004F0190935001A0935101B0935201BF91CB
:10070000AF919F918F913F912F910F900FBE0F90BE
:100710001F90189526E8230F0296A11DB11DD2CF78
:10072000789484B5826084BD84B5816084BD85B5CC
:10073000826085BD85B5816085BD80916E008160D8
:1007400080936E001092810080918100826080937E
:100750008100809181008160809381008091800080
:100760008160809380008091B10084608093B100AB
:100770008091B00081608093B00080917A008460A5
:1007800080937A0080917A00826080937A008091D1
:100790007A00816080937A0080917A0080688093EB
:1007A0007A001092C1008DE00E9487008CE00E94C8
:1007B00087008BE00E94870060E08DE00E94A60029
:1007C00060E08CE00E94A60060E08BE00E94A60042
:1007D00082E00E94790280E00E9416038CE091E0A2
:1007E0000E94C80160ED77E080E090E00E94170170
:1007F0000E947102C0E0D0E061E08DE00E94A6009E
:1008000060E08CE00E94A60060E08BE00E94A60001
:1008100080E00E9416038BE191E00E94C8012EE166
:10082000C22ED12CE12CF12C81E00E94160384E22F
:1008300091E00E94C8014AE0C701B6010E947A0116
:1008400080E391E00E94C80168EE73E080E090E0F0
:100850000E94170181E0C81AD108E108F1088FEF62
:10086000C816D806E806F806F9F60E94710260E09C
:100870008DE00E94A60061E08CE00E94A60060E08E
:100880008BE00E94A60080E00E94160383E391E0C3
:100890000E94C80195E0C92ED12CE12CF12C81E0F9
:1008A0000E94160384E291E00E94C8014AE0C70159
:1008B000B6010E947A0180E391E00E94C80168EECF
:1008C00073E080E090E00E94170181E0C81AD1082F
:1008D000E108F1088FEFC816D806E806F806F9F621
:1008E0000E94710260E08DE00E94A60060E08CE052
:1008F0000E94A60061E08BE00E94A60080E00E94BA
:1009000016038CE391E00E94C8018CE3C82ED12C21
:10091000E12CF12C81E00E94160384E291E00E9418
:10092000C8014AE0C701B6010E947A0180E391E064
:100930000E94C80168EE73E080E090E00E94170119
:1009400081E0C81AD108E108F1088FEFC816D8066F
:10095000E806F806F9F60E947102209709F44CCFD8
:100960000E94000049CFE3E5F1E01382128284E0A7
:1009700091E09183808382E084838FEF858383E09D
:10098000868384E0878385E0808786E0818787E0AF
:1009900082871386148615861686178681E00C9446
:1009A0007902A1E21A2EAA1BBB1BFD010DC0AA1FD2
:1009B000BB1FEE1FFF1FA217B307E407F50720F0C8
:1009C000A21BB30BE40BF50B661F771F881F991F43
:1009D0001A9469F760957095809590959B01AC018C
:1009E000BD01CF010895EE0FFF1F0590F491E02D9A
:0609F0000994F894FFCF0A
:1009F600000000002403490177017601496E6974FD
:100A060069616C697A696E672E2E0057414C4B20DE
:100A16004E4F570054494D45204C4546543A200008
:100A260073200048555252592055500053544F5088
:0A0A36002057414C4B494E47000089
:00000001FF
